:100000000C9435000C9452000C9452000C94520045
:100010000C9452000C9452000C9452000C94520018
:100020000C9452000C9452000C9452000C94520008
:100030000C9452000C9452000C9489000C945200C1
:100040000C9452000C9452000C9452000C945200E8
:100050000C9452000C9452000C9452000C945200D8
:100060000C9452000C945200A50111241FBECFEF36
:10007000D8E0DEBFCDBF22E0A0E0B1E001C01D921C
:10008000A231B207E1F710E0C5E3D0E004C0219748
:10009000FE010E94AC01C433D107C9F70E9493014D
:1000A0000C94B2010C940000389A409A0895399A41
:1000B000419A0895FC01E25FFE4F80819181718336
:1000C00060830C943D01F89414BC15BC84B5826027
:1000D00084BD85B5836085BD89EF87BDEEE6F0E020
:1000E00080818260808378940895FC01E05FFE4FF8
:1000F0002081223068F0329720813181BC0128179D
:10010000390721F4B90169577F4FC9010C945A008E
:1001100008951F920F920FB60F9211242F933F93C1
:100120004F935F936F937F938F939F93AF93BF93FF
:10013000EF93FF9380E091E00E947500FF91EF91B3
:10014000BF91AF919F918F917F916F915F914F91EF
:100150003F912F910F900FBE0F901F901895CF9346
:10016000DF93EC01C05FDE4F2881223050F437E886
:10017000239F800D911D11240E941A0188818F5F99
:100180008883DF91CF9108950F931F93CF93DF93CF
:10019000FC01E05FFE4F20812223A1F0EC018C01E5
:1001A000025F1E4FF801918380830E946300789460
:1001B000F80160817181CE01DF91CF911F910F9184
:1001C0000C945A00DF91CF911F910F91089580E018
:1001D00091E00895FC01E25FFE4F11821082805F82
:1001E0009E4FFC0110820895DC013C9111962C91E8
:1001F000FC01EF57FF4F30833197208332969C01EB
:1002000022583F4F3183208381589F4F20E8DC01E3
:100210002C9380E2A081B1819D012150310931836D
:1002200020831C928150B1F7808191810196918346
:1002300080830895FC0171836083EA57FF4F4083F8
:100240002091110231E0320F309311023197208357
:10025000319710820C94F400FC0171836083EC5799
:10026000FF4F108232964083209111022F5F20931E
:100270001102319720830C94F4000F920FB6F8947A
:100280000F921F922F923F924F925F926F927F92A6
:100290008F929F92AF92BF92CF92DF92EF92FF9296
:1002A0000F931F932F933F934F935F936F937F937E
:1002B0008F939F93AF93BF93CF93DF93EF93FF936E
:1002C000A82FB92F00905D000D9200905E000C9257
:1002D000A62FB72FCD91DC91C0935D00D0935E0027
:1002E000FF91EF91DF91CF91BF91AF919F918F914E
:1002F0007F916F915F914F913F912F911F910F913E
:10030000FF90EF90DF90CF90BF90AF909F908F9035
:100310007F906F905F904F903F902F901F900F9025
:100320000FBE0F9008950E94E700EC0141E064E5E4
:1003300070E00E94AF0042E067E570E0CE010E94ED
:10034000AF00CE010E94C400FFCF10920F021092A6
:100350000E02109210020895EE0FFF1F0590F49107
:08036000E02D0994F894FFCF91
:00000001FF
