:100000000C9435000C9452000C9452000C94520045
:100010000C9452000C9452000C9452000C94520018
:100020000C9452000C9452000C9452000C94520008
:100030000C9452000C9452000C94A5000C945200A5
:100040000C9452000C9452000C9452000C945200E8
:100050000C9452000C9452000C9452000C945200D8
:100060000C9452000C945200BC0111241FBECFEF1F
:10007000D8E0DEBFCDBF22E0A0E0B1E001C01D921C
:10008000A231B207E1F710E0C5E3D0E004C0219748
:10009000FE010E94C301C433D107C9F70E94A90120
:1000A0000C94C9010C94000030E020E028173907B7
:1000B00049F0EFE9FFE03197F1F700C000002F5F52
:1000C0003F4FF4CF0895389AC1E088B18C2788B9A2
:1000D00084EF91E00E945400F8CF399AC2E088B1D1
:1000E0008C2788B98AEF90E00E945400F8CFFC0179
:1000F000E25FFE4F80819181718360836E577F4FF5
:100100008E579F4F0C945901F89414BC15BC84B5BC
:10011000826084BD85B5836085BD89EF87BDEEE6CD
:10012000F0E080818260808378940895FC01E25F32
:10013000FE4F20813181BC012817390721F4B90114
:1001400069577F4FC9010C9477001F920F920FB629
:100150000F9211242F933F934F935F936F937F934D
:100160008F939F93AF93BF93EF93FF9380E091E0C2
:100170000E949600FF91EF91BF91AF919F918F9157
:100180007F916F915F914F913F912F910F900FBE93
:100190000F901F901895CF93DF93EC01C05FDE4F57
:1001A0002881223050F437E8239F800D911D1124BF
:1001B0000E94370188818F5F8883DF91CF910895F6
:1001C0000F931F93CF93DF9300D0CDB7DEB7FC0121
:1001D000E05FFE4F2081222389F08C01025F1E4FD9
:1001E000F801918380830E948400F801608171810D
:1001F0006E577F4FCE0101960E9459010F900F90CC
:10020000DF91CF911F910F91089580E091E00895C3
:10021000FC01E25FFE4F11821082805F9E4FFC0165
:1002200010820895DC013C9111962C91FC01EF574E
:10023000FF4F30833197208331971082319720E828
:10024000208334969C0124583F4F31832083835868
:100250009F4FDC011C928EE1A081B1819D01215054
:100260003109318320831C928150B1F70895FC013C
:1002700071836083EA57FF4F4083209111022F5F03
:100280002093110231972083319710820C94120130
:10029000FC0171836083EC57FF4F108232964083DC
:1002A000209111022F5F20931102319720830C942B
:1002B00012010F920FB60F921F9211242F923F92AC
:1002C0004F925F926F927F928F929F92AF92BF9266
:1002D000CF92DF92EF92FF920F931F932F933F9352
:1002E0004F935F936F937F938F939F93AF93BF933E
:1002F000CF93DF93EF93FF93DC010DB60D920EB613
:100300000C92DB010D900DBE0C900EBEFF91EF9193
:10031000DF91CF91BF91AF919F918F917F916F911D
:100320005F914F913F912F911F910F91FF90EF900F
:10033000DF90CF90BF90AF909F908F907F906F9005
:100340005F904F903F902F901F900F900FBE0F9097
:1003500008950E940501EC0141E063E670E00E940F
:10036000CB0042E06DE670E0CE010E94CB00CE01F2
:100370000E94E0000000FECF10920F0210920E02C9
:10038000109210020895EE0FFF1F0590F491E02DDA
:060390000994F894FFCF70
:00000001FF
